:020000040800F2
:10000000D84B002021020008510A0008010800080E
:100010009D09000875040008611500080000000033
:10002000000000000000000000000000890100083E
:100030001906000800000000CD0100082112000888
:100040003B0200083B0200083B0200083B0200089C
:100050003B0200083B0200083B0200083B0200088C
:100060003B0200083B0200083B0200083B0200087C
:100070003B0200083B0200083B0200083B0200086C
:100080003B0200083B0200083B0200083B0200085C
:100090003B0200083B0200083B0200083B0200084C
:1000A0003B0200083B0200083B0200083B0200083C
:1000B0003B0200083B0200083B0200083B0200082C
:1000C0003B0200083B0200083B0200083B0200081C
:1000D0003B0200083B0200083B0200083B0200080C
:1000E0003B0200083B0200083B02000800F002F857
:1000F00000F03AF80AA090E8000C82448344AAF188
:100100000107DA4501D100F02FF8AFF2090EBAE885
:100110000F0013F0010F18BFFB1A43F0010318473B
:100120000833000028330000103A24BF78C878C193
:10013000FAD8520724BF30C830C144BF04680C60ED
:10014000704700000023002400250026103A28BF35
:1001500078C1FBD8520728BF30C148BF0B60704739
:100160001FB51FBD10B510BD00F07DF81146FFF79B
:10017000F7FF01F0F7F900F09BF803B4FFF7F2FF87
:1001800003BC00F0A3F80000224B19680868B0E82F
:10019000F00F80F30988BFF36F8F4FF0000080F3FA
:1001A00011884EF00D0E70470000000006480068F0
:1001B000006880F3088862B661B6BFF34F8FBFF363
:1001C0006F8F00DF00BF00BF08ED00E0EFF3098094
:1001D000BFF36F8F0F4B1A6820E9F00F106008B55E
:1001E0004FF0BF0080F31188BFF34F8FBFF36F8FC5
:1001F00002F00CF84FF0000080F31188BDE80840D1
:1002000019680868B0E8F00F80F30988BFF36F8FB2
:10021000704700BF4C000020EFF3058070470000DE
:100220000948804709480047FEE7FEE7FEE7FEE78A
:10023000FEE7FEE7FEE7FEE7FEE7FEE704480549C6
:10024000054A064B7047000055120008ED000008F3
:10025000D8450020D84B0020D8470020D8470020A0
:10026000704770477047754600F02CF8AE460500A1
:100270006946534620F00700854618B020B5FFF7C1
:10028000DDFFBDE820404FF000064FF000074FF0C3
:1002900000084FF0000B21F00701AC46ACE8C009A4
:1002A000ACE8C009ACE8C009ACE8C0098D467047AD
:1002B00010B50446AFF300802046BDE81040FFF7BC
:1002C0005CBF0000004870477845002001491820B5
:1002D000ABBEFEE7260002007047000028E015488C
:1002E0000078802821DD00211348006802F073FDAA
:1002F0000ED21148006802F0F5FB06464FF033328B
:100300000E4B02F005FB044602F0FCF80A490860B7
:1003100000210948006802F0DFFC02D200200649F3
:1003200008600548006800F073FE0A2001F01AFE1C
:10033000D5E70000380000203C0000203333D33FD5
:1003400028E015480078802821DA1449144800680C
:1003500002F0C2FC0ED21248006802F0C3FB06464F
:100360004FF033320F4B02F0FFF8044602F0CAF8A8
:100370000B49086009490A48006802F02CFD02D2C6
:100380000648074908600648006800F041FE0A2058
:1003900001F0E8FDD5E700003800002000003443FC
:1003A0003C0000203333D33F27E0144800788028F6
:1003B00020DD00211248006802F00DFD0DD210482A
:1003C000006802F08FFB06460E4A0F4B02F0A0FABF
:1003D000044602F097F80A490860002108480068BE
:1003E00002F07AFC02D20020054908600448006847
:1003F00000F034FE0A2001F0B5FDD6E73A000020F7
:10040000400000209A9999999999C93F27E014488A
:100410000078802820DA13491348006802F05CFC59
:100420000DD21148006802F05DFB06460F4A104BE2
:1004300002F09AF8044602F065F80B490860094991
:100440000948006802F0C7FC02D206480649086065
:100450000548006800F002FE0A2001F083FDD6E79F
:100460003A0000200000AA42400000209A99999981
:100470009999C93F00BFFEE727E0144800787F281C
:1004800020DD13491348006802F0A5FC0DD2114885
:10049000006802F027FB06460F4A104B02F038FABC
:1004A000044602F02FF80B49086009490948006822
:1004B00002F012FC02D206480649086005480068AE
:1004C00000F0F2FD0A2001F04DFDD6E73B000020D0
:1004D0000000B442440000209A9999999999C93F23
:1004E00027E0144800787F2820DA13491348006871
:1004F00002F0F2FB0DD21148006802F0F3FA064652
:100500000F4A104B02F030F8044601F0FBFF0B4994
:10051000086009490948006802F05DFC02D20648FB
:10052000064908600548006800F0BEFD0A2001F099
:1005300019FDD6E73B0000200000344344000020B2
:100540009A9999999999C93F29E000F033F94FF6A2
:10055000F771884220D112491248006802F03BFC32
:100560000DD21048006802F0BDFA06460E4A0F4B45
:1005700002F0CEF9044601F0C5FF0A4908600849B7
:100580000848006802F0A8FB02D205480549086047
:100590000448006800F0AEFD022001F0E3FCD4E75F
:1005A00000008242480000209A9999999999C93F80
:1005B00029E000F0FFF84FF6FB71884220D1124984
:1005C0001248006802F088FB0DD21048006802F063
:1005D00089FA06460E4A0F4B01F0C6FF044601F0A9
:1005E00091FF0A49086008490848006802F0F3FBD7
:1005F00002D20548054908600448006800F07AFD09
:10060000022001F0AFFCD4E70000E44248000020E3
:100610009A9999999999C93F704700B5034603E0A3
:100620004FF47A7000F005F8181EA3F10103F7D11A
:1006300000BD00EBC001C9004FF0E0225161002174
:1006400091610521116100BF4FF0E021096901F4BA
:1006500080310029F8D004214FF0E0221161704769
:100660002DE9F04102460025002600200023002449
:10067000002791F803C00CF00F0591F803C00CF0AF
:10068000100CBCF1000F03D091F802C04CEA050534
:1006900091F800C0BCF1000F31D0146800202BE0AD
:1006A0004FF0010C0CFA00F3B1F800C00CEA03069D
:1006B0009E4220D183004FF00F0C0CFA03F7BC438D
:1006C00005FA03FC4CEA040491F803C0BCF1280FBE
:1006D00006D14FF0010C0CFA00FCC2F814C00AE07D
:1006E00091F803C0BCF1480F05D14FF0010C0CFA92
:1006F00000FCC2F810C0401C0828D1D31460B1F827
:1007000000C0BCF1FF0F34DD546800202EE000F182
:10071000080C4FF0010808FA0CF3B1F800C00CEA1D
:1007200003069E4221D183004FF00F0C0CFA03F711
:10073000BC4305FA03FC4CEA040491F803C0BCF185
:10074000280F05D100F1080C08FA0CF8C2F8148043
:1007500091F803C0BCF1480F07D100F1080C4FF02D
:10076000010808FA0CF8C2F81080401C0828CED303
:100770005460BDE8F0810246002093680B400BB145
:10078000012000E0002070470AB1016100E04161F2
:100790007047000010B5064CE4790470044C247ACC
:1007A0000C70034C64791470014CA4791C7010BD5A
:1007B000A4000020034800790249C97840EA0120DA
:1007C00070470000A400002010B500F019F90024C3
:1007D00006E00649085D00F0FBFC05490855641C6D
:1007E000092CF6DB00F011F910BD00002E000020EE
:1007F000A40000200148407870470000A4000020B9
:1008000000BFFEE78EE0FFF7D5FF4FF2FF71884291
:100810007ED14548006801F093FC4448006801F02F
:100820008FFC4348006801F08BFC4248006801F0EF
:1008300087FC4148006801F083FC4048006801F0F3
:100840007FFC3F48006801F07BFC3E48006801F0F7
:1008500077FC3D48006801F073FC3C4800F0D8FB91
:10086000002000F0FBFB3A4800F01EFC394800F085
:1008700041FC36483849086000203849086034484F
:10088000374908603348374908604FF47A7001F0FF
:1008900069FBFFF7AFFF732817D12348006801F009
:1008A000E1FB2248006801F0DDFB2148006801F00F
:1008B000D9FB2048006801F0D5FB1F48006801F013
:1008C000D1FB1E48006801F0CDFBFFF793FF4128E4
:1008D00017D11548006801F033FC1448006801F096
:1008E0002FFC1348006801F02BFC1248006801F04F
:1008F00027FC1148006801F023FC1048006801F053
:100900001FFC0F48006801F0ADFB0E48006800E0D6
:1009100005E001F0A7FB0C48006801F0A3FB1420E0
:1009200001F020FB6FE70000000000200400002021
:10093000080000200C0000201000002014000020FF
:10094000180000201C000020240000200000B442F9
:1009500000003443000082423C00002040000020A0
:10096000440000204800002001200A49087042206D
:100970004870022003E00021064A1154401C092857
:10098000F9DB002003E00021034A1154401C092830
:10099000F9DB70472E000020A400002000BFFEE716
:1009A00008B50121042000F0ABFA10208DF80300F7
:1009B000B020ADF8000003208DF8020069460B4816
:1009C000FFF74EFE48208DF803004020ADF80000F0
:1009D00003208DF8020069460448FFF741FE01201C
:1009E00000F02CF8012000F01FF808BD00080140BD
:1009F00010B540210148FFF7BEFE10BD00080140C0
:100A000010B5002000F01AF810BD10B5012000F05C
:100A100015F810BD10B50446E2B280210148FFF779
:100A2000B3FE10BD0008014010B50446E2B220211B
:100A30000148FFF7A9FE10BD0008014010B50446AB
:100A4000E2B210210148FFF79FFE10BD00080140EF
:100A5000704770B500240EE00021204600F0F3F846
:100A6000002504E0002000F087F9681CC5B2802D45
:100A7000F8DB601CC4B2082CEEDB70BD08B50121A8
:100A8000082000F03DFA14208DF8030003208DF8B3
:100A900002004FF48070ADF8000069460A48FFF785
:100AA000DFFD4FF40070ADF8000069460648FFF71F
:100AB000D7FD012211020448FFF766FE0122510210
:100AC0000148FFF761FE08BD000C014070B5054606
:100AD000002419E080202041284008B1012000E0D6
:100AE000002002464FF400710E48FFF74DFE012230
:100AF00011020C48FFF748FE00224FF480710948AC
:100B0000FFF742FE601CC4B2082CE3DB0122110295
:100B10000448FFF739FE00224FF480710148FFF7C7
:100B200033FE70BD000C014010B5012251020A488D
:100B3000FFF72AFE012211020748FFF725FE0022D7
:100B40004FF400710448FFF71FFE00224FF480713C
:100B50000148FFF719FE10BD000C014010B500223E
:100B60004FF400710648FFF70FFE012211020448FE
:100B7000FFF70AFE012251020148FFF705FE10BDF2
:100B8000000C014070B5002406E0002500E06D1C5B
:100B9000B5F57A7FFBD3641CB4F57A7FF5D3FFF704
:100BA0006DFFAE2000F0D8F8D52000F0D5F88020F9
:100BB00000F0D2F8A82000F0CFF83F2000F0CCF8E9
:100BC000D32000F0C9F8002000F0C6F8402000F063
:100BD000C3F8A12000F0C0F8C82000F0BDF8DA206A
:100BE00000F0BAF8122000F0B7F8812000F0B4F855
:100BF000CF2000F0B1F8D92000F0AEF8F12000F0DD
:100C0000ABF8DB2000F0A8F8302000F0A5F8A42015
:100C100000F0A2F8A62000F09FF88D2000F09CF8CC
:100C2000142000F099F8AF2000F096F8FFF711FFBC
:100C300070BD10B50246012000E050430B1EA1F12B
:100C40000101FAD110BD70B505460C4645F0B00063
:100C500000F082F8102141EA141000F07DF804F051
:100C60000F0000F079F870BD2DE9F04105460E4601
:100C70001746721ED206110E6A1E5206100EFFF79C
:100C8000E2FF002409E0A7F12001134A02EB011161
:100C9000085D00F071F8601CC4B2082CF3DB721E12
:100CA000D206110E6A1E012303EB4202D0B2FFF7F7
:100CB000CAFF00240BE0A7F12001074A02EB011252
:100CC00004F10801505C00F057F8601CC4B2082C15
:100CD000F1DBBDE8F0810000382E00082DE9F04777
:100CE00081460E4690461F4600241DE0381B411EDB
:100CF0001020FFF79EFFB8FBF0F000F00F050A2D63
:100D000008DA05F13000C2B23019C1B24846FFF727
:100D1000ABFF07E005F13700C2B23019C1B2484657
:100D2000FFF7A2FF601CC4B2BC42DFDBBDE8F08766
:100D30002DE9F04107460E461546002407E02A5DDE
:100D40003019C1B23846FFF78FFF601CC4B2285D6E
:100D50000028F4D1BDE8F08110B50446FFF7E4FEA9
:100D60007820FFF7B3FE0020FFF7B0FE2046FFF724
:100D7000ADFEFFF7F3FE10BD10B50446FFF7D4FE3D
:100D80007820FFF7A3FE4020FFF7A0FE2046FFF7E4
:100D90009DFEFFF7E3FE10BD10B5FFF701FE10BD8D
:100DA00000B589B00121084600F09AF8012102201F
:100DB00000F096F80121042000F0A2F8012108209B
:100DC00000F09EF818208DF823000620ADF82000D2
:100DD00003208DF8220008A92C48FFF741FC1820B9
:100DE0008DF823000320ADF820008DF8220008A91B
:100DF0002748FFF735FC4FF0804000F067FA2548A0
:100E000000F064FA0120ADF81A000020ADF81600D9
:100E100044F61F60ADF818004720ADF8140000201C
:100E20008DF81C0005A94FF0804000F047FB05A994
:100E3000184800F043FB01A800F02EFB6020ADF83D
:100E400004000020ADF80C000120ADF806000020E1
:100E5000ADF80A0001A94FF0804000F03DFA01A969
:100E60004FF0804000F08AFA01A90A4800F086FAA3
:100E700001A9084800F0D2FA0121880700F01AFA07
:100E80000121044800F016FA09B000BD0008014035
:100E9000000C01400004004010B5044621464FF00C
:100EA000804000F003FB10BD10B5044621464FF012
:100EB000804000F0FDFA10BD10B5044621460248FE
:100EC00000F0F6FA10BD00000004004010B5044622
:100ED0002146024800F0EEFA10BD00000004004078
:100EE00029B1064AD2690243044BDA6104E0034A9D
:100EF000D2698243014BDA61704700000010024062
:100F000029B1064A92690243044B9A6104E0034AFC
:100F100092698243014B9A617047000000100240C1
:100F200010B5FFF73DFF10BD10B500F001F810BD82
:100F30000CB50020019000903348006840F48030E8
:100F40003149086000BF3048006800F4003000906C
:100F50000198401C0190009818B90198B0F5A06F55
:100F6000F1D12948006800F4003010B10120009050
:100F700001E0002000900098012843D12348006838
:100F800040F01000214908600846006820F0030086
:100F900008600846006840F0020008601A4840688F
:100FA000194948600846406848600846406840F46F
:100FB000806048600846406820F47C10486008461D
:100FC000406840F4E81048600846006840F08070CF
:100FD000086000BF0C48006800F000700028F9D0DD
:100FE0000948406820F00300074948600846406807
:100FF00040F00200486000BF0348406800F00C0069
:101000000828F9D10CBD0000001002400020024069
:101010002DE9F84F82460D49504601F09BFD0090A6
:1010200001F060FD80460A4A0A4B01F09DFA06462F
:101030000022094B01F06EFB044601F03DFB1FFA54
:1010400080FB5846FFF728FFBDE8F88F0000E14419
:101050009A9999999999993F0088D3402DE9F84F29
:1010600082460D49504601F075FD009001F03AFDB1
:1010700080460A4A0A4B01F077FA06460022094BDD
:1010800001F048FB044601F017FB1FFA80FB5846AD
:10109000FFF70AFFBDE8F88F0000E1449A9999999B
:1010A0009999993F0088D3402DE9F84F82460D4920
:1010B000504601F04FFD009001F014FD80460A4AB1
:1010C0000A4B01F051FA06460022094B01F022FBBF
:1010D000044601F0F1FA1FFA80FB5846FFF7ECFED8
:1010E000BDE8F88F0000E1449A9999999999993F40
:1010F0000088D3402DE9F84F82460D49504601F053
:1011000029FD009001F0EEFC80460A4A0A4B01F0EE
:101110002BFA06460022094B01F0FCFA044601F0C6
:10112000CBFA1FFA80FB5846FFF7D0FEBDE8F88FD8
:101130000000E1449A9999999999993F0088D34080
:101140002DE9F04104460D4617461E46032322466C
:1011500004210220FFF7C2FD03232A460B210220AF
:10116000FFF7BCFD03233A4604211846FFF7B6FDFE
:10117000032332460B211846FFF7B0FDBDE8F0818E
:1011800010B5FFF717FB0446042322460121184639
:10119000FFF7A4FD10BD000010B5FFF72BFB4128A1
:1011A00004D107A201210846FFF7C2FDFFF722FB89
:1011B000732804D104A201210846FFF7B9FD10BD30
:1011C000477265656E0000005265642020000000D3
:1011D00070B50546002600241DE00121A14001EA6A
:1011E0000500FFF717FC012000F0BCFE0020FFF710
:1011F0001BFCFFF7FDFB012802D1A0403043C6B223
:10120000012000F0AFFE0120FFF70EFC012000F0EE
:10121000A9FE601CC4B2082CDFDB304670BD0000A4
:1012200010B500BFBF2080F31188BFF34F8FBFF30D
:101230006F8F00BF01F064F818B14FF0805004497F
:10124000086000BF002080F3118800BF10BD0000BF
:1012500004ED00E010B51348006840F001001149AA
:10126000086008464068104908400E494860084632
:1012700000680E4908400B4908600846006820F4E1
:10128000802008600846406820F4FE0048604FF463
:101290001F008860FFF748FE4FF0006004490860B7
:1012A00010BD0000001002400000FFF8FFFFF6FE36
:1012B00008ED00E021B1028842F00102028004E062
:1012C00002884FF6FE731A400280704701894FF67C
:1012D000F87211400181704770B50024002200238C
:1012E000058C4FF6EF7635400584028C8388048B9D
:1012F00048F6FF752C404FF6FF452C400D884FF601
:10130000FF7606EA05252C434FF6DF752A400D8946
:1013100006EA05152A434D8806EA05152A43154DA8
:10132000A84202D0144DA8421DD14FF67F752A4025
:101330004D894FF6FF7606EA05152A434FF6BF752D
:101340002A408D8806EA05152A434FF6FF352B40C3
:101350004FF2FF752B408D8906EA85052B43CD8919
:1013600006EA85052B4383800483CD8805870284A4
:1013700070BD0000002C01400034014070B5002415
:1013800000220023058C4FF6FF6635400584028C51
:101390008388848B4FF68F752C404FF6FC752C405C
:1013A0000D882C434FF6FF552A400D894FF6FF76E6
:1013B00006EA05252A434D8806EA05252A43154DE8
:1013C000A84202D0144DA8421DD14FF2FF752A4009
:1013D0004D894FF6FF7606EA05252A434FF6FF357D
:1013E0002A408D8806EA05252A434EF6FF752B40D4
:1013F0004DF6FF752B408D8906EA05152B43CD89E7
:1014000006EA05152B4383808483CD888587028473
:1014100070BD0000002C01400034014070B5002276
:1014200000230024058C4EF6FF7635400584038C9E
:101430008488828B48F6FF752A404FF6FF452A4084
:101440000D884FF6FF7606EA05252A434DF6FF750F
:101450002B400D8906EA05352B434D8806EA0535F4
:101460002B430B4DA84202D00A4DA84208D14BF69F
:10147000FF752C408D894FF6FF7606EA85152C43C3
:1014800084808283CD88A0F84050038470BD000022
:10149000002C014000340140002101804180818006
:1014A000C180018141818181C1817047018770477D
:1014B00081877047A0F84010704700000022028822
:1014C0001D4B98420ED01D4B98420BD0B0F1804F6F
:1014D00008D01B4B984205D01A4B984202D01A4BA9
:1014E000984204D14FF68F731A404B881A43174B1A
:1014F000984207D0164B984204D04FF6FF431A404B
:10150000CB881A4302808B8883850B8803850A4B1E
:1015100098420BD0094B984208D00E4B984205D008
:101520000D4B984202D00D4B984201D10B7A0386A5
:101530000123838270470000002C014000340140E9
:101540000004004000080040000C00400010004073
:1015500000140040004001400044014000480140A8
:1015600000BFFEE71CB5FFF717FCFFF70BFBFFF70B
:10157000D7FC1948FFF74CFD0020FFF76FFD174817
:10158000FFF792FD1648FFF7B5FD4FF47A70FFF7AD
:1015900044F814A201210220FFF7CAFB13A208217C
:1015A0000220FFF7C5FB13A201210320FFF7C0FBB8
:1015B00012A208210320FFF7BBFB002001210346F4
:1015C0000A02CDE900100FA1114800F069FE00F0F9
:1015D00085FD00BFFEE700000000B4420000344378
:1015E000000082424C783A30303000004C793A307A
:1015F0003030000052783A303030000052793A30C2
:10160000303000007653746172745461736B000063
:10161000611D00082DE9F04105460E461C4807688B
:101620001C480068001D00F091FA50B91948006884
:1016300090F82C100120884017490968814316480A
:101640000160681C38B936B112480168091D134899
:1016500000F004FB1AE07C190E4800684460BC42AC
:1016600007D20C480168091D0D48006800F0DCFA3B
:101670000CE008480168091D0A48006800F0D4FA27
:1016800009480068844201D207480460BDE8F0813F
:10169000600000204C000020640000206401002055
:1016A00054000020500000207C00002010B50446AB
:1016B00000F0E0FA23480068401C224908602248F4
:1016C000006840B9204804600846006801280DD130
:1016D00000F014F90AE01D48006838B91A4800689B
:1016E000C06AE16A884201D8174804601848006857
:1016F000401C1749086094F82C10012088401549B7
:101700000968084313490860E16A01EB8101124A44
:1017100002EB8100211D00F0A1FA00F0BDFA0B4898
:10172000006868B108480068C06AE16A884207D268
:101730004FF0805009490860BFF34F8FBFF36F8FA0
:1017400010BD00005C0000204C000020680000205C
:101750007800002064000020B000002004ED00E0CC
:1017600070B523E000F04AFD1348006808B9012075
:1017700000E00020054600F051FEBDB900F07AFA05
:101780000D48C068C468201D00F0E0F90B480068EF
:10179000401E0A4908600A480068401E084908605F
:1017A00000F07AFA204600F00DF800BF0448006807
:1017B0000028D7D170BD0000500100205C0000203F
:1017C0005800002010B50446206B00F075FA204642
:1017D00000F072FA10BD000030B54FF4884317488E
:1017E00000F007042CB1C01D20F00700134C041BAF
:1017F0001B1B0246124C22600024114D6C60D01855
:10180000083820F007000F4C206000240D4D2D6893
:101810006C600C4D2D682C601146441A4C60094CCC
:1018200024680C60084D4C682C60084D4C682C6096
:101830004FF00044064D2C6030BD000078010020C0
:1018400088000020900000209800002094000020D4
:101850009C00002000BFFFF783FF064800680128B6
:10186000F9D94FF0805004490860BFF34F8FBFF3A0
:101870006F8FF0E7B000002004ED00E02DE9FF5F7E
:1018800080460E469146DDE90E7A109CA9F10100D2
:10189000216B01EB800B2BF0070B002507E0715D3E
:1018A00004F134004155705D00B902E06D1C102D4B
:1018B000F5D300BF002143200155052F00D3042795
:1018C000E762201D00F0ADF904F1180000F0A9F95D
:1018D0002461C7F10500A06164620020606484F89F
:1018E000480041465846039A00F01EF92060BAF1BC
:1018F000000F01D0CAF80040BDE8FF9F10B50024DA
:1019000007E004EB84010F4A02EB810000F07CF950
:10191000641C052CF5D30C4800F076F90B4800F058
:1019200073F90B4800F070F90A4800F06DF90A48A5
:1019300000F06AF904480949086004480849086049
:1019400010BD0000B000002014010020280100207C
:101950003C010020500100206401002050000020C4
:101960005400002010B50146164800E000680368E6
:101970008B42FBD30246436813448B4204D1436835
:101980004C682344436001460A464B68134404688C
:10199000A34211D10C4C03682468A34208D04B68C1
:1019A0000468646823444B6003681B680B6005E0AF
:1019B000054B1B680B6001E003680B60884200D098
:1019C000016010BD88000020900000200A490968CD
:1019D000096809B9012100E0002121B14FF0FF3170
:1019E000064A116006E004490968C968C868034AE4
:1019F0004168116070470000500000207C0000200A
:101A000000BFBF2080F31188BFF34F8FBFF36F8FEC
:101A100000BF00BFFEE7000010B5014600200A46E7
:101A20000B4C5369A34201D1012300E0002373B1A1
:101A3000084C936AA34201D1012300E0002333B98B
:101A4000936A0BB9012300E0002303B1012010BD0C
:101A5000640100203C0100202DE9F04105464FF0D3
:101A6000000800F0CBFB2B48006808B9FFF7B4FE74
:101A7000294800682840002847D145B1083505F0BD
:101A8000070020B105F00700C0F108000544002D53
:101A90003BD022480068854237D8214E3046046842
:101AA00001E0264624686068A84202D22068002827
:101AB000F7D118480068844227D0306800F1080840
:101AC000206830606068401B102807D9671960687B
:101AD000401B786065603846FFF744FF0F49606837
:101AE0000968081A0D490860084600680D49096828
:101AF000884203D2094800680A49086006496068BC
:101B00000968084360600020206000F087FC4046C0
:101B1000BDE8F081900000209C000020940000208F
:101B20008800002098000020001F4FF080730360A1
:101B3000001F21F001030360001F034B03601438F2
:101B40000260203870470000011A000801460A6947
:101B5000D1E901309860D1E90103586050688842AA
:101B600001D188685060002008611068401E106034
:101B7000106870473AE0FEF73DFE732817D11C4805
:101B8000006800F06FFA1B48006800F06BFA1A4812
:101B9000006800F067FA1948006800F063FA184816
:101BA000006800F05FFA1748006800F05BFAFEF783
:101BB00021FE412817D10E48006800F0C1FA0D48F7
:101BC000006800F0BDFA0C48006800F0B9FA0B4854
:101BD000006800F0B5FA0A48006800F0B1FA094858
:101BE000006800F0ADFA0A2000F0BCF9C3E700007D
:101BF0000000002004000020080000200C0000204D
:101C0000100000201400002000F1080141604FF096
:101C1000FF31816000F10801C160016100210160B4
:101C2000704700210161704710B502460B685C1CCB
:101C30000CB9106907E002F1080000E04068446850
:101C400024689C42FAD944684C604C68A160886062
:101C500041600A611468641C146010BD42684A60E7
:101C600093688B60936859609160086103685B1C9E
:101C70000360704700BFBF2080F31188BFF34F8F10
:101C8000BFF36F8F00BF03480068401C0149086024
:101C900070470000A000002006480068401E05496B
:101CA00008600846006820B9002080F3118800BF52
:101CB00000BF7047A000002070B506463546D6B17B
:101CC000083D2C460C4960680968084098B12068B6
:101CD00088B90949606809688843606000F08EFA35
:101CE0000649606809680844044908602046FFF70F
:101CF00039FE00F093FB70BD9C0000209400002092
:101D000003484FF0E0214861072008617047000058
:101D10003F1901001AE0FEF727FEFEF755FDFFF719
:101D20003BFA0B4B0B4A0C490C48FEF733FD0848B5
:101D30000378084802780848017808480078FFF7D7
:101D4000FFF9FFF71DFA142000F00CF9E3E700009B
:101D50003B0000203A00002039000020380000201D
:101D60001CB50446FFF786FF3E48052100234FF4CB
:101D70008072CDE900103CA13F4800F091FA3F4845
:101D8000052100234FF48072CDE900103CA14048AA
:101D900000F086FA3F48052100234FF48072CDE918
:101DA00000103DA1404800F07BFA40480521002387
:101DB0004FF48072CDE900103DA1414800F070FA67
:101DC0004048052100234FF48072CDE900103EA168
:101DD000414800F065FA4148052100234FF4807224
:101DE000CDE900103EA1424800F05AFA41480521D1
:101DF00000234FF48072CDE900103FA1424800F06B
:101E00004FFA4248052100234FF48072CDE90010BB
:101E10003FA1434800F044FA4248082100234A0108
:101E2000CDE9001040A1434800F03AFA42480721AA
:101E300000234FF48072CDE9001040A1424800F029
:101E40002FFA4248062100234FF48072CDE900109A
:101E50003FA1434800F024FAFFF71EFF002000F0E6
:101E60009BF81CBD00000020415F416E676C655F00
:101E7000506C75730000000041030008040000204E
:101E8000415F416E676C655F4D696E757300000060
:101E9000DD02000808000020425F416E676C655F4C
:101EA000506C7573000000000D0400080C00002049
:101EB000425F416E676C655F4D696E75730000002F
:101EC000A903000810000020435F416E676C655F46
:101ED000506C757300000000E1040008140000203D
:101EE000435F416E676C655F4D696E7573000000FE
:101EF0007904000818000020445F416E676C655F3C
:101F0000506C757300000000B10500081C00002033
:101F1000445F416E676C655F4D696E7573000000CC
:101F20004905000820000020765073325461736B1D
:101F300000000000151D0008240000207641524DCD
:101F40005461736B00000000751B0008280000201E
:101F5000496E697441726D5F4279537461727400A5
:101F60000508000870B50446002544B100F046F9A4
:101F700000212046FFF74EFB00F050FA05463DB920
:101F80004FF0805003490860BFF34F8FBFF36F8F4E
:101F900070BD000004ED00E070B50546FFF76AFE75
:101FA00015B92748006800E028460446201DFFF7C1
:101FB000CDFD78B9E06A00EB8000224951F820009D
:101FC00040B994F82C10012088401F4909688143CA
:101FD0001D480160A06A18B104F11800FFF7B6FDB2
:101FE0001A480068401C1949086015480068844276
:101FF00009D1211D1648FFF731FE16480068401C24
:102000001449086009E014480068401E124908603D
:102010002046FFF7D7FBFFF7D9FCFFF73DFE0F483F
:10202000006858B106480068844207D14FF08050DC
:102030000B490860BFF34F8FBFF36F8F70BD000077
:102040004C000020B0000020640000207800002038
:1020500050010020580000205C0000206800002093
:1020600004ED00E070B505462C4674B317480068CF
:1020700084422AD0FFF7FEFD2046FFF7CDFC10B3C7
:10208000201DFFF763FD94F82C10012088401049B3
:10209000096808430E490860E16A01EB81010D4AB5
:1020A00002EB8100211DFFF7D9FD0849E06A0968AC
:1020B000C96A884207D34FF0805007490860BFF3D0
:1020C0004F8FBFF36F8FFFF7E7FD70BD4C0000200F
:1020D00064000020B000002004ED00E01CB51148B1
:1020E00000210B468022CDE900100FA1104800F01E
:1020F000D7F80446012C14D100BFBF2080F311880B
:10210000BFF34F8FBFF36F8F00BF4FF0FF30094910
:10211000086001200849086000200849086000F0B4
:10212000A5F81CBD8000002049444C45000000007B
:10213000551800087C000020680000206000002086
:1021400070B50546FFF796FD15B92548006800E013
:1021500028460446201DFFF7F9FC78B9E06A00EB39
:102160008000204951F8200040B994F82C1001203B
:1021700088401D49096881431B480160A06A18B165
:1021800004F11800FFF7E2FC211D1848FFF766FD77
:10219000FFF782FD1648006828B1FFF76BFDFFF7D7
:1021A00015FCFFF779FD0E480068844217D11048EE
:1021B000006840B14FF080500E490860BFF34F8F68
:1021C000BFF36F8F0BE0094800680B49096888422C
:1021D00003D100200249086001E000F017F870BD4B
:1021E0004C000020B00000206400002064010020AA
:1021F0006800002004ED00E05C0000200248006858
:10220000401C0149086070478400002012480068A3
:1022100018B10120114908601DE000200F49086035
:102220000F480068B0FA80F0C0F11F0101EB810295
:102230000C4B03EB820042685268426000F10802D6
:102240004368934202D14268526842604268D26851
:10225000054B1A6000BF704784000020700000200A
:1022600064000020B00000204C00002010B50A4897
:10227000006840F47F00084908600846006840F0A4
:102280007F400860FFF73CFD002004490860FDF72F
:102290008DFF002010BD000020ED00E0A000002018
:1022A0002DE9FF4F85B0804689461746DDE912AB20
:1022B000B800FFF7D1FB064656B14C20FFF7CCFB28
:1022C00004460CB1266304E03046FFF7F5FC00E05D
:1022D00000247CB10020CDE900ABCDE902403A46B4
:1022E00049464046089BFFF7C9FA2046FFF7DEF94A
:1022F000012501E04FF0FF35284609B0BDE8F08F19
:102300002DE9F04100273A480068002863D1394898
:102310000068451C374805608DB93748D0F8008003
:1023200036480068344908603448C0F800803448B2
:102330000068401C32490860FFF748FB00BF314885
:10234000006885423BD300BF2B480068006808B98D
:10235000012000E0002020B14FF0FF302949086043
:102360002CE025480068C068C4686668B54202D29F
:102370002448066022E0201DFFF7E8FBA06A18B1A0
:1023800004F11800FFF7E2FB94F82C1001208840BC
:102390001D49096808431C490860E16A01EB810195
:1023A0001A4A02EB8100211DFFF758FC1849E06A28
:1023B0000968C96A8842C7D30127C5E700BF144826
:1023C0000068C06A00EB8000104951F82000012825
:1023D00000D9012704E00F480068401C0D4908603F
:1023E0000D48006800B101273846BDE8F0810000C3
:1023F00084000020600000205000002054000020D5
:10240000740000207C00002064000020B000002048
:102410004C0000206C0000207000002070B50024EB
:102420000026FFF727FC2E480068401E2C49086054
:102430000846006800284FD12A48006800284BD081
:1024400024E02948C068C46804F11800FFF77EFB47
:10245000201DFFF77BFB94F82C10012088402349B6
:102460000968084321490860E16A01EB8101204ABB
:1024700002EB8100211DFFF7F1FB1E49E06A0968AC
:10248000C96A884202D301201B49086016480068C7
:1024900008B9012000E000200028D2D00CB1FFF7DD
:1024A00095FA1648056865B100BFFFF729FF10B11E
:1024B0000120114908606D1E002DF6D100200F4942
:1024C00008600D48006838B1012630070C490860E3
:1024D000BFF34F8FBFF36F8FFFF7DEFB304670BD4A
:1024E000840000205C0000203C01002064000020EB
:1024F000B00000204C000020700000206C00002084
:1025000004ED00E021F00042A2F16052B2F5801F1C
:1025100001F0004328BFD2F17F6C0BD95FEA001CA9
:1025200043EAC20242EB507018BF704728BF20F048
:1025300001007047B2F5801FBCBF184670474FEAD4
:10254000410C1CF5001F02D2084600F03FBC70B5DC
:1025500000F08AF900000089FFF7F6BF4FF0004055
:10256000A0F580007047000010B591EA030F48BF46
:1025700083F0004300F1D481841A71EB030C05D27F
:10258000121943EB0C03001B61EB0C01DFF824E193
:102590004FEA1154A4EB135C1EEA430F18BF9EEAE6
:1025A000445F73D023EA0E03DCF1200E21EA0451CC
:1025B00043F4801332D322FA0CFE10EB0E0023FA00
:1025C0000CFE41EB0E01CCF1200E03FA0EFE10EBD7
:1025D0000E0051F10001B1F5801FCCF1200E32D276
:1025E00001EB045112FA0EF2BDE8104058BF7047DB
:1025F000401C38BF5FEA420218BF7047002814BF72
:1026000020F0010041F100014FEA410313F5001FE2
:1026100038BF7047A1F1C04100F074B9012A43EB03
:102620000302ACF1200CDCF11F0E32BF4FF0000EA4
:1026300023FA0CF310EB030041EB0451B4EB115FF0
:10264000D0D0A1EB045101F5801149085FEA3000B8
:1026500001EB04510ED350F1000038BF12FA0EFE08
:1026600008D1BDE81040C9E7401C38BF5FEA42020C
:10267000CAD1C3E7BDE810404FEA410313F5001F7C
:1026800038BF7047A1F1C04100F03CB99EEA445FF9
:1026900008D011EA5E0FBDE8104004BF01F0004110
:1026A00000207047BDE8104070B500F0DDF800BFB5
:1026B00064FBBE3E0000E0FF4FEA1153A3F58063C8
:1026C000D3F11E03A8BFD3F1200C08DB4FF000426A
:1026D00042EAC12252EA505232FA03F070470942EC
:1026E0000BD4102BC4BF0020704703F5787CBCF1DD
:1026F000FF3F05D04FF0FF3070474FF000007047AC
:1027000070B500F0B1F800BF4992248000207047F6
:10271000F0E70000DFF848C170B51CEA111E1EBFCB
:102720001CEA13159EEA0C0F95EA0C0F00F06F805F
:1027300081EA030423EA4C134EEAD47E21EA4C11C9
:1027400041F4801143F48013AE44A1FB024CA0FB82
:102750000365AEF17F7E361955EB0C05A1FB034CEA
:102760004CF10003A0FB021C16EB0C06654153F173
:102770000003094218BF46F0010613F4007F0BD195
:102780004FEA03314FEA0530340341EA155140EA7C
:1027900016506FF003020AE04FEAC3214FEAC5204A
:1027A000F40241EA555140EA56506FF0020202EB42
:1027B0002E4201EB025585EACE710AD05FEA440C45
:1027C00018BF24F0004450F1000041F1000120EA5C
:1027D000D47040F2FE7C624500D270BDA84214BFA6
:1027E0004FF080444FF04044002E08BF0024BEF15B
:1027F000806FA8BFA1F1C041BDE8704080F2828027
:102800004FF0000001F1C04101F0004170479EEA25
:102810000C0F0CEA131518BF95EA0C0F06D04FF0F9
:10282000000081EA030E0EF0004170BD00F01CF8BC
:102830008900013E00F007B800F009B84FEA430CE8
:102840005FEA5C5C08D081EA030100F05BB84FEA04
:10285000410C5FEA5C5CF6D14FF000000149704723
:102860000000FF070000F87F0EF1020E2EF0030EAD
:102870005EF8046B364205D4012A43EB030515F5D7
:10288000001F12D8012841EB010C1CF5001F0CD8C9
:102890000ED14FEAD17C15F5001F0CEB4C0C0CF15E
:1028A000020C08BF4CEBD37C04E04FF0080C01E0B5
:1028B0004FEAD37C0CEB4C0526FA05F606F007062A
:1028C000B6F1040C06D20EEB860CBDE870404CF05D
:1028D000010C6047DFE80CF0090B02024FF00041E9
:1028E0004FF00000A1F5002170BD194610460128E7
:1028F00051EB010418BFD4F5001484BF002001F08F
:10290000004170BD0808A0F500114FEA3101704781
:1029100010B591EA030F48BF83F000433FF52CAE9A
:10292000841A71EB030C07D212198CF0004C43EBA4
:102930000C03001B61EB0C01DFF8A4E14FEA11541A
:10294000A4EB135C1EEA430F18BF9EEA445F00F03D
:10295000B08023EA6E03524221EA0451C3EB6E03B6
:1029600038BF5B1EDCF1200E25D322FA0CFE10EBE3
:102970000E0043FA0CFE41EB0E01CCF1200E03FADF
:102980000EFE10EB0E0051F10001CCF1200E29D407
:1029900012FA0EF201EB0451BDE8104058BF704727
:1029A000401C1CBFB2F1004F704700280CBF491CEF
:1029B00020F00100704712EB020E43EB030218BF38
:1029C0004FF0010E4EEA4202ACF1200CDCF11E0E7B
:1029D00054D943FA0CFE10EB0E0051F1FF31CCF14B
:1029E0001E0ED5D50EF1010E12FA0EFE404141EB3E
:1029F000010101EB445C5FEA5C5C10D910EBDE7016
:102A000001EB045138BFBEF1004FBDE8104018BFC4
:102A1000704700280CBF491C20F00100704730D2DD
:102A20004FEAD42C11F5001124F400641BD0B1FA44
:102A300081F20B3AA41AA41ED2F12003914030FA7D
:102A400003F31943904001EBCC71002C01EB0451CE
:102A5000BDE81040A8BF704701F1C0414FF0000031
:102A600001F000417047B0FA80F310FA03F100D191
:102A700010BDE41A173C4805C90AE4E701EB04510C
:102A800010BD491001EB0451BDE810404FEA300081
:102A900002E04FF0000170474A0008BF0042F8D042
:102AA000B2F5001F28BF704701F000414FF0000051
:102AB00070479EEA445F07D011EA5E0FBDE8104000
:102AC00004BF002100207047BDE8104070B5FFF73B
:102AD000CBFE00BF40DFF63E83F00041104670475A
:102AE0000000E0FF43004FEAD30C4FEA3C0C4340A8
:102AF0001FBF40070CF1605113F0FE4F70471CF0F0
:102B0000006F03D100200CF0004170470CF000432F
:102B100043EA507010B540EACC0000F011F900BF54
:102B2000000000924FEA0001FFF7ECBE4FF00041B9
:102B30004FF00000A1F500217047401058BFC0F1D0
:102B40004040491058BFC1F140418142EFF300803D
:102B5000704700004FF47F0C1CEAD0121EBF1CEA25
:102B6000D11392EA0C0F93EA0C0F00F0858090EAE3
:102B7000010F48BF42F4807240F4000C41F40000A1
:102B80002CF07F4120F07F4000B58142A2EB030290
:102B90000FF2081CACEB504EC0F100009EF800E0B4
:102BA0004FEA4E0E00FB0EFC38BF49004FEA2C1CCA
:102BB00002F5FA020CFB0EF34FEACE1E4FEA112C7F
:102BC0004FEAC1210EEB635E42EB22420EFB0CFC8E
:102BD0004FEA1C5300FB03114FEA112C4FEA01315D
:102BE0000EFB0CFC4FEADC4C00FB0C11C14228BF71
:102BF00009184CEB03335DF804EB10EB410143EB98
:102C0000C250B2F57C0F38BF704729D512F0F00FD3
:102C10001CBF00F1C04000F000407047008182837B
:102C20008485868788898B8C8D8E8F9192939596DB
:102C300097999A9C9D9FA0A2A3A5A7A8AAACAEB065
:102C4000B2B3B5B7B9BCBEC0C2C5C7C9CCCED1D46A
:102C5000D7D9DCDFE2E6E9ECF0F3F7FAFE0000009A
:102C60004FEA400C0CF1807CBCF17E4F28BF7047CE
:102C7000B0F1C04000F0AAB890EA010F0CEAD113FD
:102C800048BF42F48072624538BF634507D213F4EF
:102C90007F0F16D080EA010000F00040704710B5A9
:102CA00000F04EF8097EFC3E00F005B880EA010015
:102CB00000F00040704780EA010000F0004000F0A2
:102CC00085B812F47F0F04BF0248704780EA010004
:102CD00000F07CB80000C07F50EA010C00F11380C6
:102CE0001CF5000F58BFBCF5000F01D48842704797
:102CF00007D710F5000F58BF11F5000F15D4884203
:102D00007047894270471CF5000F04D5BCF5000FD1
:102D1000F7D5814270474FF0807C1CEB400F38BFE5
:102D20001CEB410F01D28142704710B500F008F84A
:102D3000922449004FF000504FF08051FFF7FDBE44
:102D40000EF1020E2EF0030E5EF8044B244204D462
:102D50004FEA4102B2F17F4F11D84FEA4003B3F17D
:102D60007F4F0CD80ED14FEAD07CB2F17F4F0CEBE5
:102D70004C0C0CF1020C08BF4CEBD17C04E04FF082
:102D8000080C01E04FEAD17C0CEB4C0324FA03F46D
:102D900004F00704B4F1040C06D20EEB840CBDE879
:102DA00010404CF0010C6047DFE80CF0070802020D
:102DB0004FF00040A0F5800010BD0846420018BF4B
:102DC000D2F1807288BF00F0004010BDFF2141EABF
:102DD000D050C005704751EA000C00F113801CF57B
:102DE000000F58BFBCF5000F01D48142704707D7D0
:102DF00011F5000F58BF10F5000F15D48142704730
:102E0000894270471CF5000F04D5BCF5000FF7D5BB
:102E1000884270474FF0807C1CEB410F38BF1CEBA1
:102E2000400F01D28842704780EA010081EA000128
:102E300080EA0100FFF779BF0000000000000000F9
:102E40000000000000000000000000F8000000008A
:102E5000000000333000000000100C06100C0600CB
:102E6000000000000000000040C07840C078400032
:102E7000043F04043F040400007088FC0830000094
:102E8000001820FF211E0000F008F000E0180000EC
:102E900000211C031E211E0000F0088870000000A5
:102EA0001E2123241927211010160E0000000000F7
:102EB0000000000000000000000000E01804020014
:102EC000000000071820400000020418E000000085
:102ED0000040201807000000404080F08040400083
:102EE0000202010F01020200000000F000000000D9
:102EF0000101011F010101000000000000000000AD
:102F000080B0700000000000000000000000000021
:102F100000010101010101010000000000000000AA
:102F20000030300000000000000000008060180445
:102F3000006018060100000000E010080810E00022
:102F4000000F102020100F00001010F800000000EB
:102F50000020203F20200000007008080888700032
:102F600000302824222130000030088888483000B2
:102F70000018202020110E000000C02010F80000D2
:102F800000070424243F240000F80888880808006B
:102F90000019212020110E0000E010888818000080
:102FA000000F112020110E0000380808C838080052
:102FB0000000003F000000000070880808887000D2
:102FC000001C222121221C0000E010080810E00053
:102FD0000000312222110F00000000C0C0000000DC
:102FE0000000003030000000000000800000000001
:102FF00000008060000000000000804020100800F9
:1030000000010204081020004040404040404000C1
:10301000040404040404040000081020408000009C
:103020000020100804020100007048080808F000A1
:103030000000003036010000C030C828E810E00071
:103040000718272423140B000000C038E0000000FC
:10305000203C23020227382008F888888870000066
:10306000203F202020110E00C0300808080838003A
:10307000071820202010080008F808080810E000B1
:10308000203F202020100F0008F88888E808100052
:10309000203F20202320180008F88888E808100026
:1030A000203F200003000000C0300808083800005E
:1030B00007182020221E020008F808000008F8085F
:1030C000203F210101213F20000808F808080000E6
:1030D0000020203F2020000000000808F808080019
:1030E000C08080807F00000008F888C02818080091
:1030F000203F20012638200008F8080000000000CA
:10310000203F20202020300008F8F800F8F80800C0
:10311000203F003F003F200008F830C00008F808BA
:10312000203F200007183F00E01008080810E000CA
:103130000F10202020100F0008F808080808F000E1
:10314000203F210101010000E01008080810E00004
:103150000F18242438504F0008F888888888700099
:10316000203F2000030C3020007088080808380039
:103170000038202121221C00180808F8080818002F
:103180000000203F2000000008F808000008F808B0
:10319000001F202020201F000878880000C8380861
:1031A000000007380E010000F80800F80008F800D9
:1031B000033C0700073C0300081868808068180873
:1031C00020302C03032C30200838C800C8380800F1
:1031D0000000203F2000000010080808C838080040
:1031E0002038262120201800000000FE02020200E4
:1031F0000000007F40404000000C30C00000000094
:10320000000000010638C00000020202FE000000BB
:10321000004040407F000000000004020202040061
:10322000000000000000000000000000000000009E
:103230008080808080808080000202040000000086
:10324000000000000000000000008080808000007E
:103250000019242222223F2008F80080800000006C
:10326000003F112020110E0000000080808000002F
:10327000000E112020201100000000808088F8003E
:10328000000E112020103F20000080808080000070
:10329000001F222222221300008080F088888818D4
:1032A0000020203F202000000000808080808000DF
:1032B000006B94949493600008F800808080000074
:1032C000203F210000203F2000809898000000004F
:1032D0000020203F2020000000000080989800007F
:1032E00000C08080807F000008F80000808080009F
:1032F000203F24022D302000000808F800000000C4
:103300000020203F2020000080808080808080007E
:10331000203F20003F20003F808000808080000010
:10332000203F210000203F2000008080808000009E
:10333000001F202020201F008080008080000000CF
:1033400080FFA12020110E000000008080808000FE
:10335000000E112020A0FF808080800080808000EF
:1033600020203F212000010000008080808080001C
:103370000033242424241900008080E08080000091
:103380000000001F202000008080000000808000DE
:10339000001F202020103F2080808000008080803F
:1033A00000010E30080601008080008000808080CF
:1033B0000F300C030C300F000080800080808000F4
:1033C0000020312E0E31200080808000008080801F
:1033D00080818E70180601000080808080808000CF
:1033E0000021302C2221300000000000807C0202ED
:1033F00000000000003F404000000000FF0000000F
:1034000000000000FF0000000002027C80000000BD
:103410000040403F000000000006010102020404D9
:1034200000000000000000004834000800000020F8
:10343000A400000028010008EC340008A4000020CB
:10344000344B0000440100080000000000000000B0
:10345000000000000000000000000000000000006C
:10346000000000000000000000000000000000005C
:103470000000000000000142000000000000000009
:10348000000000000000B4420000000000003443CF
:103490000000824200000000000000000000000068
:1034A000000000000000000000000000000000001C
:1034B000000000000000000000000000000000000C
:1034C00000000000000000000000000000000000FC
:1034D00000000000000000000000000000000000EC
:0C34E0000000000000000000AAAAAAAA38
:04000005080000ED02
:00000001FF
