:020000040800F2
:100000009006002089010008950A000845090008AB
:10001000E1090008ED040008811500080000000057
:10002000000000000000000000000000690F000850
:100030005107000800000000250F00087312000897
:10004000A3010008A3010008A3010008A301000800
:10005000A3010008A3010008A3010008A3010008F0
:10006000A3010008A3010008A3010008A3010008E0
:10007000A3010008A3010008A3010008A3010008D0
:10008000A3010008A3010008A3010008A3010008C0
:10009000A3010008A3010008A3010008A3010008B0
:1000A000A3010008A3010008A3010008A3010008A0
:1000B000A3010008A3010008A3010008A301000890
:1000C000A3010008A3010008A3010008A301000880
:1000D000A3010008A3010008A3010008A301000870
:1000E000A3010008A3010008A301000800F002F822
:1000F00000F03AF80AA090E8000C82448344AAF188
:100100000107DA4501D100F02FF8AFF2090EBAE885
:100110000F0013F0010F18BFFB1A43F0010318473B
:100120006824000088240000103A24BF78C878C1F1
:10013000FAD8520724BF30C830C144BF04680C60ED
:10014000704700000023002400250026103A28BF35
:1001500078C1FBD8520728BF30C148BF0B60704739
:100160001FB51FBD10B510BD00F031F81146FFF7E7
:10017000F7FF01F00DFA00F04FF803B4FFF7F2FFBC
:1001800003BC00F057F800000948804709480047C1
:10019000FEE7FEE7FEE7FEE7FEE7FEE7FEE7FEE737
:1001A000FEE7FEE704480549054A064B7047000094
:1001B00075120008ED000008900000209006002055
:1001C00090020020900200207047704770477546EB
:1001D00000F02CF8AE4605006946534620F00700B3
:1001E000854618B020B5FFF7DDFFBDE820404FF091
:1001F00000064FF000074FF000084FF0000B21F011
:100200000701AC46ACE8C009ACE8C009ACE8C009DD
:10021000ACE8C0098D46704710B50446AFF30080C6
:100220002046BDE81040FFF7A8BF00000048704717
:100230002C00002001491820ABBEFEE7260002007A
:10024000704700002DE9F04100243CE000212148E6
:10025000006801F070FE0DD21E48006801F0F2FC4B
:10026000054600221C4B01F003FC074601F0FAF999
:100270001849086000211748006801F0DDFD02D22E
:100280000020144908601348006800F0E7FE0520CC
:1002900000F05FFA601C84B2142C14D100F030FB23
:1002A00000F0A0FF0D4B0E4A0E490F4800F00EFB68
:1002B0000A4803780A4802780A4801780A48007810
:1002C00000F064FF0024084800788028BEDCBDE808
:1002D000F0810000100000200000E03F0F0000202F
:1002E0000E0000200D0000200C0000202DE9F04140
:1002F00000243CE021492248006801F09DFD0DD218
:100300001F48006801F09EFC054600221D4B01F0CD
:10031000DBF9074601F0A6F91949086017491848A2
:10032000006801F008FE02D214481549086014481C
:10033000006800F093FE052000F00BFA601C84B208
:10034000142C14D100F0DCFA00F04CFF0E4B0F4AD5
:100350000F49104800F0BAFA0B4803780B480278AE
:100360000B4801780B48007800F010FF0024094882
:1003700000788028BEDBBDE8F08100000000344337
:10038000100000200000E03F0F0000200E000020C1
:100390000D0000200C0000202DE9F04100243CE07D
:1003A00000212148006801F0C6FD0DD21E480068FA
:1003B00001F048FC054600221C4B01F059FB0746A2
:1003C00001F050F91849086000211748006801F051
:1003D00033FD02D20020144908601348006800F081
:1003E00063FE052000F0B5F9601C84B2142C14D112
:1003F00000F086FA00F0F6FE0D4B0E4A0E490F484B
:1004000000F064FA0A4803780A4802780A4801783A
:100410000A48007800F0BAFE0024064800788028D8
:10042000BEDCBDE8F0810000140000200000E03FC9
:100430000F0000200E0000200D0000200C00002006
:100440002DE9F04100243CE021492248006801F0F8
:10045000F3FC0DD21F48006801F0F4FB05460022B2
:100460001D4B01F031F9074601F0FCF8194908600D
:1004700017491848006801F05EFD02D2144815497A
:1004800008601448006800F00FFE052000F061F9D4
:10049000601C84B2142C14D100F032FA00F0A2FED9
:1004A0000E4B0F4A0F49104800F010FA0B48037822
:1004B0000B4802780B4801780B48007800F066FE84
:1004C0000024074800788028BEDBBDE8F0810000EA
:1004D0000000AA42140000200000E03F0F000020AE
:1004E0000E0000200D0000200C00002000BFFEE7E1
:1004F0002DE9F04100243CE021492248006801F048
:100500001AFD0DD21F48006801F09CFB0546002231
:100510001D4B01F0ADFA074601F0A4F81949086037
:1005200017491848006801F087FC02D214481549A1
:1005300008601448006800F0DDFD052000F009F9AE
:10054000601C84B2142C14D100F0DAF900F04AFED9
:100550000E4B0F4A0F49104800F0B8F90B480378CA
:100560000B4802780B4801780B48007800F00EFE2B
:100570000024064800787F28BEDCBDE8F08100003A
:100580000000B442180000200000E03F0F000020EF
:100590000E0000200D0000200C0000202DE9F0418D
:1005A00000243CE021492248006801F045FC0DD2BE
:1005B0001F48006801F046FB054600221D4B01F074
:1005C00083F8074601F04EF81949086017491848A2
:1005D000006801F0B0FC02D21448154908601448C4
:1005E000006800F087FD052000F0B3F8601C84B2BD
:1005F000142C14D100F084F900F0F4FD0E4B0F4AD6
:100600000F49104800F062F90B4803780B48027854
:100610000B4801780B48007800F0B8FD002406482C
:1006200000787F28BEDBBDE8F08100000000344385
:10063000180000200000E03F0F0000200E00002006
:100640000D0000200C0000202DE9F04100242EE0D8
:100650001B491C48006801F06EFC0DD21948006867
:1006600001F0F0FA05460022174B01F001FA0746A7
:1006700000F0F8FF1349086011491248006801F0C2
:10068000DBFB02D20E480F4908600E48006800F0FC
:1006900057FD052000F05DF8601C84B2142C06D1D3
:1006A00000F02EF900F09EFD00F090FD002400F017
:1006B0001DF94FF6F7718842CAD0BDE8F0810000FD
:1006C000000082421C0000200000E03F2DE9F041C4
:1006D00000242EE01B491C48006801F0ADFB0DD240
:1006E0001948006801F0AEFA05460022174B00F0E9
:1006F000EBFF074600F0B6FF1349086011491248A6
:10070000006801F018FC02D20E480F4908600E483C
:10071000006800F015FD052000F01BF8601C84B295
:10072000142C06D100F0ECF800F05CFD00F04EFD5A
:10073000002400F0DBF84FF6FB718842CAD0BDE818
:10074000F08100000000E4421C0000200000E03FB7
:10075000704700B5034603E04FF47A7000F005F8E7
:10076000181EA3F10103F7D100BD00EBC001C900C1
:100770004FF0E0225161002191610521116100BF1C
:100780004FF0E021096901F480310029F8D00421FB
:100790004FF0E022116170472DE9F041024600253B
:1007A0000026002000230024002791F803C00CF04D
:1007B0000F0591F803C00CF0100CBCF1000F03D032
:1007C00091F802C04CEA050591F800C0BCF1000F99
:1007D00031D0146800202BE04FF0010C0CFA00F32C
:1007E000B1F800C00CEA03069E4220D183004FF00E
:1007F0000F0C0CFA03F7BC4305FA03FC4CEA0404A3
:1008000091F803C0BCF1280F06D14FF0010C0CFA8F
:1008100000FCC2F814C00AE091F803C0BCF1480F14
:1008200005D14FF0010C0CFA00FCC2F810C0401CBE
:100830000828D1D31460B1F800C0BCF1FF0F34DD3B
:10084000546800202EE000F1080C4FF0010808FA6F
:100850000CF3B1F800C00CEA03069E4221D18300DC
:100860004FF00F0C0CFA03F7BC4305FA03FC4CEAFB
:10087000040491F803C0BCF1280F05D100F1080C65
:1008800008FA0CF8C2F8148091F803C0BCF1480FC4
:1008900007D100F1080C4FF0010808FA0CF8C2F873
:1008A0001080401C0828CED35460BDE8F081024679
:1008B000002093680B400BB1012000E0002070473E
:1008C0000AB1016100E041617047000010B5064CBB
:1008D000E4790470044C247A0C70034C647914702D
:1008E000014CA4791C7010BD200000200348007941
:1008F0000249C97840EA012070470000200000202A
:1009000010B500F09FF80A20FFF72FFF002406E043
:100910000749085D00F086FC06490855641C092C4F
:10092000F6DB00F094F80A20FFF71FFF10BD00006F
:10093000020000202000002001484078704700009D
:100940002000002000BFFEE710B5FFF7CFFF4FF2F9
:10095000FF7188421BD10E480E49086008460068A6
:1009600000F07CFB00200C4908600846006800F09D
:100970009BFB0A480A4908600846006800F0BAFB79
:100980000848094908600846006800F0D9FB10BD16
:100990000000B44210000020140000200000344386
:1009A00018000020000082421C00002001200A499B
:1009B000087042204870022003E00021064A1154CA
:1009C000401C0928F9DB002003E00021034A1154F0
:1009D000401C0928F9DB704702000020200000209D
:1009E00000BFFEE708B50121042000F0ADFA102099
:1009F0008DF80300B020ADF8000003208DF8020050
:100A000069460B48FFF7C8FE48208DF803004020D8
:100A1000ADF8000003208DF8020069460448FFF796
:100A2000BBFE012000F02CF8012000F01FF808BDEB
:100A30000008014010B540210148FFF738FF10BD04
:100A40000008014010B5002000F01AF810BD10B5E4
:100A5000012000F015F810BD10B50446E2B2802167
:100A60000148FFF72DFF10BD0008014010B50446F6
:100A7000E2B220210148FFF723FF10BD000801402A
:100A800010B50446E2B210210148FFF719FF10BD6E
:100A900000080140704770B500240EE00021204698
:100AA00000F0F3F8002504E0002000F087F9681C4E
:100AB000C5B2802DF8DB601CC4B2082CEEDB70BD23
:100AC00008B50121082000F03FFA14208DF803003A
:100AD00003208DF802004FF48070ADF800006946E5
:100AE0000A48FFF759FE4FF40070ADF80000694660
:100AF0000648FFF751FE012211020448FFF7E0FE0D
:100B0000012251020148FFF7DBFE08BD000C014045
:100B100070B50546002419E080202041284008B126
:100B2000012000E0002002464FF400710E48FFF75C
:100B3000C7FE012211020C48FFF7C2FE00224FF44B
:100B400080710948FFF7BCFE601CC4B2082CE3DBCF
:100B5000012211020448FFF7B3FE00224FF4807116
:100B60000148FFF7ADFE70BD000C014010B5012239
:100B700051020A48FFF7A4FE012211020748FFF7BD
:100B80009FFE00224FF400710448FFF799FE0022F7
:100B90004FF480710148FFF793FE10BD000C014037
:100BA00010B500224FF400710648FFF789FE0122BC
:100BB00011020448FFF784FE012251020148FFF7A9
:100BC0007FFE10BD000C014070B5002406E000253A
:100BD00000E06D1CB5F57A7FFBD3641CB4F57A7F19
:100BE000F5D3FFF76DFFAE2000F0D8F8D52000F068
:100BF000D5F8802000F0D2F8A82000F0CFF83F20F0
:100C000000F0CCF8D32000F0C9F8002000F0C6F8BE
:100C1000402000F0C3F8A12000F0C0F8C82000F088
:100C2000BDF8DA2000F0BAF8122000F0B7F8812001
:100C300000F0B4F8CF2000F0B1F8D92000F0AEF801
:100C4000F12000F0ABF8DB2000F0A8F8302000F035
:100C5000A5F8A42000F0A2F8A62000F09FF88D20AF
:100C600000F09CF8142000F099F8AF2000F096F8FE
:100C7000FFF711FF70BD10B50246012000E05043A0
:100C80000B1EA1F10101FAD110BD70B505460C464D
:100C900045F0B00000F082F8102141EA141000F095
:100CA0007DF804F00F0000F079F870BD2DE9F041F7
:100CB00005460E461746721ED206110E6A1E5206D1
:100CC000100EFFF7E2FF002409E0A7F12001134A0C
:100CD00002EB0111085D00F071F8601CC4B2082C31
:100CE000F3DB721ED206110E6A1E012303EB4202D1
:100CF000D0B2FFF7CAFF00240BE0A7F12001074A9A
:100D000002EB011204F10801505C00F057F8601C7E
:100D1000C4B2082CF1DBBDE8F0810000981F000888
:100D20002DE9F04781460E4690461F4600241DE0FF
:100D3000381B411E1020FFF79EFFB8FBF0F000F0BB
:100D40000F050A2D08DA05F13000C2B23019C1B220
:100D50004846FFF7ABFF07E005F13700C2B2301994
:100D6000C1B24846FFF7A2FF601CC4B2BC42DFDB41
:100D7000BDE8F0872DE9F04107460E4615460024F0
:100D800007E02A5D3019C1B23846FFF78FFF601CBB
:100D9000C4B2285D0028F4D1BDE8F08110B5044646
:100DA000FFF7E4FE7820FFF7B3FE0020FFF7B0FE68
:100DB0002046FFF7ADFEFFF7F3FE10BD10B5044669
:100DC000FFF7D4FE7820FFF7A3FE4020FFF7A0FE38
:100DD0002046FFF79DFEFFF7E3FE10BD10B5FFF7BD
:100DE00001FE10BD00B589B00121084600F09CF855
:100DF0000121022000F098F80121042000F0A4F85D
:100E00000121082000F0A0F818208DF8230006200A
:100E1000ADF8200003208DF8220008A92C48FFF728
:100E2000BBFC18208DF823000320ADF820008DF8BE
:100E3000220008A92748FFF7AFFC4FF0804000F0E0
:100E400055FA254800F052FA0120ADF81A000020AA
:100E5000ADF8160044F61F60ADF818004720ADF855
:100E6000140000208DF81C0005A94FF0804000F010
:100E700035FB05A9184800F031FB01A800F01CFB68
:100E80006020ADF804000020ADF80C000120ADF8A2
:100E900006000020ADF80A0001A94FF0804000F0E4
:100EA0002BFA01A94FF0804000F078FA01A90A4816
:100EB00000F074FA01A9084800F0C0FA012188077F
:100EC00000F008FA0121044800F004FA09B000BD5E
:100ED00000080140000C01400004004010B5044629
:100EE00021464FF0804000F0F1FA10BD10B50446E5
:100EF00021464FF0804000F0EBFA10BD10B50446DB
:100F00002146024800F0E4FA10BD00000004004051
:100F100010B504462146024800F0DCFA10BD00007E
:100F2000000400407047000029B1064AD26902431C
:100F3000044BDA6104E0034AD2698243014BDA616F
:100F4000704700000010024029B1064A926902432E
:100F5000044B9A6104E0034A92698243014B9A610F
:100F60007047000000100240704710B5FFF73AFFCD
:100F700010BD10B500F002F810BD00000CB5002047
:100F8000019000903348006840F480303149086097
:100F900000BF3048006800F4003000900198401C09
:100FA0000190009818B90198B0F5A06FF1D12948C7
:100FB000006800F4003010B10120009001E0002032
:100FC00000900098012843D12348006840F01000A9
:100FD000214908600846006820F0030008600846C0
:100FE000006840F0020008601A48406819494860EB
:100FF0000846406848600846406840F480604860A1
:101000000846406820F47C1048600846406840F478
:10101000E81048600846006840F08070086000BF33
:101020000C48006800F000700028F9D009484068BA
:1010300020F00300074948600846406840F002007D
:10104000486000BF0348406800F00C000828F9D150
:101050000CBD000000100240002002402DE9F84FB6
:1010600082460D49504600F025FE009000F0EAFD52
:1010700080460A4A0A4B00F027FB06460022094B2D
:1010800000F0F8FB044600F0C7FB1FFA80FB58464F
:10109000FFF724FFBDE8F88F0000E1449A99999981
:1010A0009999993F0088D3402DE9F84F82460D4920
:1010B000504600F0FFFD009000F0C4FD80460A4A53
:1010C0000A4B00F001FB06460022094B00F0D2FB60
:1010D000044600F0A1FB1FFA80FB5846FFF706FF0D
:1010E000BDE8F88F0000E1449A9999999999993F40
:1010F0000088D3402DE9F84F82460D49504600F054
:10110000D9FD009000F09EFD80460A4A0A4B00F08F
:10111000DBFA06460022094B00F0ACFB044600F067
:101120007BFB1FFA80FB5846FFF7E8FEBDE8F88F0F
:101130000000E1449A9999999999993F0088D34080
:101140002DE9F84F82460D49504600F0B3FD00905E
:1011500000F078FD80460A4A0A4B00F0B5FA0646D0
:101160000022094B00F086FB044600F055FB1FFAF5
:1011700080FB5846FFF7CCFEBDE8F88F0000E14445
:101180009A9999999999993F0088D3402DE9F0410E
:1011900004460D4617461E4603232246042102201C
:1011A000FFF7BEFD03232A460B210220FFF7B8FDFF
:1011B00003233A4604211846FFF7B2FD03233246C3
:1011C0000B211846FFF7ACFDBDE8F08110B5FFF725
:1011D0008DFB04460423224601211846FFF7A0FD9B
:1011E00010BD000010B5FFF7A7FB412804D109A2EC
:1011F00001210846FFF7BEFDFFF79EFB732804D1CF
:1012000006A201210846FFF7B5FD0A20FFF7ADFA57
:1012100010BD0000477265656E00000052656420D5
:101220002000000070B50546002600241DE00121C5
:10123000A14001EA0500FFF70FFC0120FFF789FA42
:101240000020FFF713FCFFF7F5FB012802D1A040B7
:101250003043C6B20120FFF77CFA0120FFF706FCFD
:101260000120FFF776FA601CC4B2082CDFDB3046A1
:1012700070BD704710B51348006840F00100114977
:10128000086008464068104908400E494860084612
:1012900000680E4908400B4908600846006820F4C1
:1012A000802008600846406820F4FE0048604FF443
:1012B0001F008860FFF75DFE4FF000600449086082
:1012C00010BD0000001002400000FFF8FFFFF6FE16
:1012D00008ED00E021B1028842F00102028004E042
:1012E00002884FF6FE731A400280704701894FF65C
:1012F000F87211400181704770B50024002200236C
:10130000058C4FF6EF7635400584028C8388048B7C
:1013100048F6FF752C404FF6FF452C400D884FF6E0
:10132000FF7606EA05252C434FF6DF752A400D8926
:1013300006EA05152A434D8806EA05152A43154D88
:10134000A84202D0144DA8421DD14FF67F752A4005
:101350004D894FF6FF7606EA05152A434FF6BF750D
:101360002A408D8806EA05152A434FF6FF352B40A3
:101370004FF2FF752B408D8906EA85052B43CD89F9
:1013800006EA85052B4383800483CD880587028484
:1013900070BD0000002C01400034014070B50024F5
:1013A00000220023058C4FF6FF6635400584028C31
:1013B0008388848B4FF68F752C404FF6FC752C403C
:1013C0000D882C434FF6FF552A400D894FF6FF76C6
:1013D00006EA05252A434D8806EA05252A43154DC8
:1013E000A84202D0144DA8421DD14FF2FF752A40E9
:1013F0004D894FF6FF7606EA05252A434FF6FF355D
:101400002A408D8806EA05252A434EF6FF752B40B3
:101410004DF6FF752B408D8906EA05152B43CD89C6
:1014200006EA05152B4383808483CD888587028453
:1014300070BD0000002C01400034014070B5002256
:1014400000230024058C4EF6FF7635400584038C7E
:101450008488828B48F6FF752A404FF6FF452A4064
:101460000D884FF6FF7606EA05252A434DF6FF75EF
:101470002B400D8906EA05352B434D8806EA0535D4
:101480002B430B4DA84202D00A4DA84208D14BF67F
:10149000FF752C408D894FF6FF7606EA85152C43A3
:1014A00084808283CD88A0F84050038470BD000002
:1014B000002C0140003401400021018041808180E6
:1014C000C180018141818181C1817047018770475D
:1014D00081877047A0F84010704700000022028802
:1014E0001D4B98420ED01D4B98420BD0B0F1804F4F
:1014F00008D01B4B984205D01A4B984202D01A4B89
:10150000984204D14FF68F731A404B881A43174BF9
:10151000984207D0164B984204D04FF6FF431A402A
:10152000CB881A4302808B8883850B8803850A4BFE
:1015300098420BD0094B984208D00E4B984205D0E8
:101540000D4B984202D00D4B984201D10B7A038685
:101550000123838270470000002C014000340140C9
:101560000004004000080040000C00400010004053
:101570000014004000400140004401400048014088
:1015800000BFFEE710B51E20FFF7E3F810BD000016
:10159000FFF724FCFFF718FBFFF7E7FCFFF7F2FF6C
:1015A00024A201210220FFF7E5FB24A2082102204A
:1015B000FFF7E0FB23A201210320FFF7DBFB23A2BF
:1015C00008210320FFF7D6FB33E0FFF799F9FFF777
:1015D00009FEFFF7B9F91F4B1F4A20492048FFF7C2
:1015E00075F91C4803781C4802781C4801781C488F
:1015F0000078FFF7CBFDFFF7E9FDFFF79DF97328B2
:101600000BD1FEF773FEFEF71DFEFEF719FFFEF786
:10161000C3FEFEF7C3FFFEF76BFFFFF78DF941280E
:1016200003D1FFF753F8FFF70FF8FFF7BFF9FFF704
:10163000A9FFCAE74C783A30303000004C793A3094
:101640003030000052783A303030000052793A3071
:10165000303000000F0000200E0000200D000020A0
:101660000C00002021F00042A2F16052B2F5801F70
:1016700001F0004328BFD2F17F6C0BD95FEA001C58
:1016800043EAC20242EB507018BF704728BF20F0F7
:1016900001007047B2F5801FBCBF184670474FEA83
:1016A000410C1CF5001F02D2084600F03FBC70B58B
:1016B00000F08AF900000089FFF7F6BF4FF0004004
:1016C000A0F580007047000010B591EA030F48BFF5
:1016D00083F0004300F1D481841A71EB030C05D22E
:1016E000121943EB0C03001B61EB0C01DFF824E142
:1016F0004FEA1154A4EB135C1EEA430F18BF9EEA95
:10170000445F73D023EA0E03DCF1200E21EA04517A
:1017100043F4801332D322FA0CFE10EB0E0023FAAE
:101720000CFE41EB0E01CCF1200E03FA0EFE10EB85
:101730000E0051F10001B1F5801FCCF1200E32D224
:1017400001EB045112FA0EF2BDE8104058BF704789
:10175000401C38BF5FEA420218BF7047002814BF20
:1017600020F0010041F100014FEA410313F5001F91
:1017700038BF7047A1F1C04100F074B9012A43EBB2
:101780000302ACF1200CDCF11F0E32BF4FF0000E53
:1017900023FA0CF310EB030041EB0451B4EB115F9F
:1017A000D0D0A1EB045101F5801149085FEA300067
:1017B00001EB04510ED350F1000038BF12FA0EFEB7
:1017C00008D1BDE81040C9E7401C38BF5FEA4202BB
:1017D000CAD1C3E7BDE810404FEA410313F5001F2B
:1017E00038BF7047A1F1C04100F03CB99EEA445FA8
:1017F00008D011EA5E0FBDE8104004BF01F00041BF
:1018000000207047BDE8104070B500F0DDF800BF63
:1018100064FBBE3E0000E0FF4FEA1153A3F5806376
:10182000D3F11E03A8BFD3F1200C08DB4FF0004218
:1018300042EAC12252EA505232FA03F0704709429A
:101840000BD4102BC4BF0020704703F5787CBCF18B
:10185000FF3F05D04FF0FF3070474FF0000070475A
:1018600070B500F0B1F800BF4992248000207047A5
:10187000F0E70000DFF848C170B51CEA111E1EBF7A
:101880001CEA13159EEA0C0F95EA0C0F00F06F800E
:1018900081EA030423EA4C134EEAD47E21EA4C1178
:1018A00041F4801143F48013AE44A1FB024CA0FB31
:1018B0000365AEF17F7E361955EB0C05A1FB034C99
:1018C0004CF10003A0FB021C16EB0C06654153F122
:1018D0000003094218BF46F0010613F4007F0BD144
:1018E0004FEA03314FEA0530340341EA155140EA2B
:1018F00016506FF003020AE04FEAC3214FEAC520F9
:10190000F40241EA555140EA56506FF0020202EBF0
:101910002E4201EB025585EACE710AD05FEA440CF3
:1019200018BF24F0004450F1000041F1000120EA0A
:10193000D47040F2FE7C624500D270BDA84214BF54
:101940004FF080444FF04044002E08BF0024BEF109
:10195000806FA8BFA1F1C041BDE8704080F28280D5
:101960004FF0000001F1C04101F0004170479EEAD4
:101970000C0F0CEA131518BF95EA0C0F06D04FF0A8
:10198000000081EA030E0EF0004170BD00F01CF86B
:101990008900013E00F007B800F009B84FEA430C97
:1019A0005FEA5C5C08D081EA030100F05BB84FEAB3
:1019B000410C5FEA5C5CF6D14FF0000001497047D2
:1019C0000000FF070000F87F0EF1020E2EF0030E5C
:1019D0005EF8046B364205D4012A43EB030515F586
:1019E000001F12D8012841EB010C1CF5001F0CD878
:1019F0000ED14FEAD17C15F5001F0CEB4C0C0CF10D
:101A0000020C08BF4CEBD37C04E04FF0080C01E063
:101A10004FEAD37C0CEB4C0526FA05F606F00706D8
:101A2000B6F1040C06D20EEB860CBDE870404CF00B
:101A3000010C6047DFE80CF0090B02024FF0004197
:101A40004FF00000A1F5002170BD19461046012895
:101A500051EB010418BFD4F5001484BF002001F03D
:101A6000004170BD0808A0F500114FEA3101704730
:101A700010B591EA030F48BF83F000433FF52CAE49
:101A8000841A71EB030C07D212198CF0004C43EB53
:101A90000C03001B61EB0C01DFF8A4E14FEA1154C9
:101AA000A4EB135C1EEA430F18BF9EEA445F00F0EC
:101AB000B08023EA6E03524221EA0451C3EB6E0365
:101AC00038BF5B1EDCF1200E25D322FA0CFE10EB92
:101AD0000E0043FA0CFE41EB0E01CCF1200E03FA8E
:101AE0000EFE10EB0E0051F10001CCF1200E29D4B6
:101AF00012FA0EF201EB0451BDE8104058BF7047D6
:101B0000401C1CBFB2F1004F704700280CBF491C9D
:101B100020F00100704712EB020E43EB030218BFE6
:101B20004FF0010E4EEA4202ACF1200CDCF11E0E29
:101B300054D943FA0CFE10EB0E0051F1FF31CCF1F9
:101B40001E0ED5D50EF1010E12FA0EFE404141EBEC
:101B5000010101EB445C5FEA5C5C10D910EBDE70C4
:101B600001EB045138BFBEF1004FBDE8104018BF73
:101B7000704700280CBF491C20F00100704730D28C
:101B80004FEAD42C11F5001124F400641BD0B1FAF3
:101B900081F20B3AA41AA41ED2F12003914030FA2C
:101BA00003F31943904001EBCC71002C01EB04517D
:101BB000BDE81040A8BF704701F1C0414FF00000E0
:101BC00001F000417047B0FA80F310FA03F100D140
:101BD00010BDE41A173C4805C90AE4E701EB0451BB
:101BE00010BD491001EB0451BDE810404FEA300030
:101BF00002E04FF0000170474A0008BF0042F8D0F1
:101C0000B2F5001F28BF704701F000414FF00000FF
:101C100070479EEA445F07D011EA5E0FBDE81040AE
:101C200004BF002100207047BDE8104070B5FFF7E9
:101C3000CBFE00BF40DFF63E83F000411046704708
:101C40000000E0FF43004FEAD30C4FEA3C0C434056
:101C50001FBF40070CF1605113F0FE4F70471CF09E
:101C6000006F03D100200CF0004170470CF00043DE
:101C700043EA507010B540EACC0000F011F900BF03
:101C8000000000924FEA0001FFF7ECBE4FF0004168
:101C90004FF00000A1F500217047401058BFC0F17F
:101CA0004040491058BFC1F140418142EFF30080EC
:101CB000704700004FF47F0C1CEAD0121EBF1CEAD4
:101CC000D11392EA0C0F93EA0C0F00F0858090EA92
:101CD000010F48BF42F4807240F4000C41F4000050
:101CE0002CF07F4120F07F4000B58142A2EB03023F
:101CF0000FF2081CACEB504EC0F100009EF800E063
:101D00004FEA4E0E00FB0EFC38BF49004FEA2C1C78
:101D100002F5FA020CFB0EF34FEACE1E4FEA112C2D
:101D20004FEAC1210EEB635E42EB22420EFB0CFC3C
:101D30004FEA1C5300FB03114FEA112C4FEA01310B
:101D40000EFB0CFC4FEADC4C00FB0C11C14228BF1F
:101D500009184CEB03335DF804EB10EB410143EB46
:101D6000C250B2F57C0F38BF704729D512F0F00F82
:101D70001CBF00F1C04000F000407047008182832A
:101D80008485868788898B8C8D8E8F91929395968A
:101D900097999A9C9D9FA0A2A3A5A7A8AAACAEB014
:101DA000B2B3B5B7B9BCBEC0C2C5C7C9CCCED1D419
:101DB000D7D9DCDFE2E6E9ECF0F3F7FAFE00000049
:101DC0004FEA400C0CF1807CBCF17E4F28BF70477D
:101DD000B0F1C04000F0AAB890EA010F0CEAD113AC
:101DE00048BF42F48072624538BF634507D213F49E
:101DF0007F0F16D080EA010000F00040704710B558
:101E000000F04EF8097EFC3E00F005B880EA0100C3
:101E100000F00040704780EA010000F0004000F050
:101E200085B812F47F0F04BF0248704780EA0100B2
:101E300000F07CB80000C07F50EA010C00F1138074
:101E40001CF5000F58BFBCF5000F01D48842704745
:101E500007D710F5000F58BF11F5000F15D48842B1
:101E60007047894270471CF5000F04D5BCF5000F80
:101E7000F7D5814270474FF0807C1CEB400F38BF94
:101E80001CEB410F01D28142704710B500F008F8F9
:101E9000922449004FF000504FF08051FFF7FDBEF3
:101EA0000EF1020E2EF0030E5EF8044B244204D411
:101EB0004FEA4102B2F17F4F11D84FEA4003B3F12C
:101EC0007F4F0CD80ED14FEAD07CB2F17F4F0CEB94
:101ED0004C0C0CF1020C08BF4CEBD17C04E04FF031
:101EE000080C01E04FEAD17C0CEB4C0324FA03F41C
:101EF00004F00704B4F1040C06D20EEB840CBDE828
:101F000010404CF0010C6047DFE80CF007080202BB
:101F10004FF00040A0F5800010BD0846420018BFF9
:101F2000D2F1807288BF00F0004010BDFF2141EA6D
:101F3000D050C005704751EA000C00F113801CF529
:101F4000000F58BFBCF5000F01D48142704707D77E
:101F500011F5000F58BF10F5000F15D481427047DE
:101F6000894270471CF5000F04D5BCF5000FF7D56A
:101F7000884270474FF0807C1CEB410F38BF1CEB50
:101F8000400F01D28842704780EA010081EA0001D7
:101F900080EA0100FFF779BF0000000000000000A8
:101FA0000000000000000000000000F80000000039
:101FB000000000333000000000100C06100C06007A
:101FC000000000000000000040C07840C0784000E1
:101FD000043F04043F040400007088FC0830000043
:101FE000001820FF211E0000F008F000E01800009B
:101FF00000211C031E211E0000F008887000000054
:102000001E2123241927211010160E0000000000A5
:102010000000000000000000000000E018040200C2
:10202000000000071820400000020418E000000033
:102030000040201807000000404080F08040400031
:102040000202010F01020200000000F00000000087
:102050000101011F0101010000000000000000005B
:1020600080B07000000000000000000000000000D0
:102070000001010101010101000000000000000059
:1020800000303000000000000000000080601804F4
:10209000006018060100000000E010080810E000D1
:1020A000000F102020100F00001010F8000000009A
:1020B0000020203F202000000070080808887000E1
:1020C0000030282422213000003008888848300061
:1020D0000018202020110E000000C02010F8000081
:1020E00000070424243F240000F80888880808001A
:1020F0000019212020110E0000E01088881800002F
:10210000000F112020110E0000380808C838080000
:102110000000003F00000000007088080888700080
:10212000001C222121221C0000E010080810E00001
:102130000000312222110F00000000C0C00000008A
:1021400000000030300000000000008000000000AF
:1021500000008060000000000000804020100800A7
:102160000001020408102000404040404040400070
:10217000040404040404040000081020408000004B
:102180000020100804020100007048080808F00050
:102190000000003036010000C030C828E810E00020
:1021A0000718272423140B000000C038E0000000AB
:1021B000203C23020227382008F888888870000015
:1021C000203F202020110E00C030080808083800E9
:1021D000071820202010080008F808080810E00060
:1021E000203F202020100F0008F88888E808100001
:1021F000203F20202320180008F88888E8081000D5
:10220000203F200003000000C0300808083800000C
:1022100007182020221E020008F808000008F8080D
:10222000203F210101213F20000808F80808000094
:102230000020203F2020000000000808F8080800C7
:10224000C08080807F00000008F888C0281808003F
:10225000203F20012638200008F808000000000078
:10226000203F20202020300008F8F800F8F808006F
:10227000203F003F003F200008F830C00008F80869
:10228000203F200007183F00E01008080810E00079
:102290000F10202020100F0008F808080808F00090
:1022A000203F210101010000E01008080810E000B3
:1022B0000F18242438504F0008F888888888700048
:1022C000203F2000030C30200070880808083800E8
:1022D0000038202121221C00180808F808081800DE
:1022E0000000203F2000000008F808000008F8085F
:1022F000001F202020201F000878880000C8380810
:10230000000007380E010000F80800F80008F80087
:10231000033C0700073C0300081868808068180821
:1023200020302C03032C30200838C800C83808009F
:102330000000203F2000000010080808C8380800EE
:102340002038262120201800000000FE0202020092
:102350000000007F40404000000C30C00000000042
:10236000000000010638C00000020202FE0000006A
:10237000004040407F000000000004020202040010
:10238000000000000000000000000000000000004D
:102390008080808080808080000202040000000035
:1023A000000000000000000000008080808000002D
:1023B0000019242222223F2008F80080800000001B
:1023C000003F112020110E000000008080800000DE
:1023D000000E112020201100000000808088F800ED
:1023E000000E112020103F2000008080808000001F
:1023F000001F222222221300008080F08888881883
:102400000020203F2020000000008080808080008D
:10241000006B94949493600008F800808080000022
:10242000203F210000203F200080989800000000FD
:102430000020203F2020000000000080989800002D
:1024400000C08080807F000008F80000808080004D
:10245000203F24022D302000000808F80000000072
:102460000020203F2020000080808080808080002D
:10247000203F20003F20003F8080008080800000BF
:10248000203F210000203F2000008080808000004D
:10249000001F202020201F0080800080800000007E
:1024A00080FFA12020110E000000008080808000AD
:1024B000000E112020A0FF8080808000808080009E
:1024C00020203F21200001000000808080808000CB
:1024D0000033242424241900008080E08080000040
:1024E0000000001F2020000080800000008080008D
:1024F000001F202020103F208080800000808080EE
:1025000000010E300806010080800080008080807D
:102510000F300C030C300F000080800080808000A2
:102520000020312E0E3120008080800000808080CD
:1025300080818E701806010000808080808080007D
:102540000021302C2221300000000000807C02029B
:1025500000000000003F404000000000FF000000BD
:1025600000000000FF0000000002027C800000006C
:102570000040403F00000000000601010202040488
:102580000000000000000000A82500080000002056
:102590002000000028010008C825000820000020B5
:1025A0007006000044010008000001420000000025
:1025B00000000000000000000000B4420000000025
:0825C0000000344300008242D8
:04000005080000ED02
:00000001FF
